:020000040800F2
:10000000B84A0020E10100082B290008B5220008A9
:100010002929000861070008112C000800000000D1
:10002000000000000000000000000000490100087E
:10003000D5070008000000008D010008F129000824
:10004000FB010008FB010008FB010008FB010008A0
:10005000FB010008FB010008FB010008FB01000890
:10006000FB010008FB010008FB010008FB01000880
:10007000FB010008FB010008FB010008FB01000870
:10008000FB010008FB01000881060008FB010008D5
:10009000FB010008FB010008FB010008FB01000850
:1000A000FB010008FB010008FB010008FB01000840
:1000B000A52A0008FB010008FB010008FB0100085D
:1000C000FB010008FB010008FB010008FB01000820
:1000D000FB010008FB010008FB010008FB01000810
:1000E000FB010008FB010008FB010008FB01000800
:1000F000FB010008FB010008FB010008FB010008F0
:10010000FB010008FB010008FB010008FB010008DF
:10011000FB010008FB010008B12A0008FB010008F0
:10012000FB010008FB010008FB010008FB010008BF
:10013000DFF810D000F082FA004800473D33000895
:10014000AFF30080B84A0020224B19680868B0E875
:10015000F00F80F30988BFF36F8F4FF0000080F33A
:1001600011884EF00D0E7047000000000648006830
:10017000006880F3088862B661B6BFF34F8FBFF3A3
:100180006F8F00DF00BF00BF08ED00E0EFF30980D4
:10019000BFF36F8F0F4B1A6820E9F00F106008B59E
:1001A0004FF0500080F31188BFF34F8FBFF36F8F74
:1001B00003F024FE4FF0000080F31188BDE80840F2
:1001C00019680868B0E8F00F80F30988BFF36F8FF3
:1001D000704700BF48000020EFF305807047000023
:1001E0000648804706480047FEE7FEE7FEE7FEE7D1
:1001F000FEE7FEE7FEE7FEE7FEE7FEE7A32A0008CC
:1002000031010008202A04DB203A21FA02F0002103
:10021000704721FA02F3D040C2F120029140084316
:100220001946704740EA01039B0703D009E008C95B
:10023000121F08C0042AFAD203E011F8013B00F8AB
:10024000013B521EF9D27047D2B201E000F8012BF7
:10025000491EFBD270470022F6E710B513460A4646
:1002600004461946FFF7F0FF204610BD2DE9FE4F6A
:1002700081EA030404F0004421F0004100944FF0AF
:10028000000B23F0004350EA01045ED052EA03045D
:100290005BD0C3F30A54C1F30A552C44A4F2F334DF
:1002A0000194A0FB0254C1F3130141F48011C3F384
:1002B000130343F4801301FB024400FB034E840A42
:1002C000970A44EA815447EA8357A4FB07680295DA
:1002D0008D0A05FB07854FEA932C04FB0C54270578
:1002E000029D4FEA065847EA1637B5EB08056EEB54
:1002F000070C870E920E47EA811742EA8312A7FB8A
:100300000201B6EB0B0164EB00042B0D43EA0C3346
:100310005E1844EB1C50DA465146E7FB0201C5F378
:1003200013044FEA0B3343EA14534FEA0432019C9F
:1003300043EA0603A4F10C040294009CCDE900B446
:1003400000F02EF903B0BDE8F08F00200146F9E778
:100350002DE9F04D81EA030404F0004B21F0004543
:1003600014464FF0000A23F0004150EA050220D065
:1003700054EA01021DD0C5F30A570246C5F3130320
:10038000C1F31300C1F30A5640F4801543F48013FF
:10039000A7EB0608101BD64608F2FD3873EB0500E4
:1003A00002D308F1010801E092185B41B8F1000F97
:1003B00003DA00200146BDE8F08D00204FF48011E3
:1003C000064684460EE0171B73EB050705D3121B88
:1003D00063EB050306434CEA010C49084FEA300081
:1003E00092185B4150EA0107EDD152EA030012D0A6
:1003F00082EA040083EA0501084305D0101BAB41E3
:1004000006D20122002306E000224FF0004302E062
:100410006FF0010253101AEB06004CEB085110EB81
:100420000A0041EB0B01BDE8F04D00F0AAB80EB593
:1004300040F2334102910021CDE900110A460B46FA
:1004400000F0AEF803B000BDC1F30A5210B5C1F31D
:10045000130140F2FF3341F480119A4201DA002087
:1004600010BD40F233439A42A2F2334203DC5242BF
:10047000FFF7C8FE10BD904010BD01F0004330B43E
:1004800021F0004150EA010206D00A0DA2F5607287
:10049000C1F31301002A02DC30BC00207047440F76
:1004A00044EAC104C100E01830BC00EBC25000F0C7
:1004B00031B82DE9F05F0546002092469B468846FC
:1004C0000646814640241BE02846414647462246D0
:1004D000FFF798FE53465A46C01A914110D3114671
:1004E0001846224600F0BCF82D1A67EB01084F466B
:1004F00022460120002100F0B3F817EB00094E411D
:10050000201EA4F10104DFDC484631462A4643465A
:10051000BDE8F09F0029A8BF7047401C490008BFF4
:1005200020F00100704710B4B0FA80FC00FA0CF023
:1005300050EA010404BF10BC704749B1CCF120045B
:1005400021FA04F411FA0CF118BF012121430843E8
:10055000A3EB0C01CB1D4FEA00614FEA102042BF14
:10056000002010BC704700EBC35010440029A4BF0A
:1005700010BC7047401C490008BF20F0010010BCAF
:10058000704710B5141E73F1000408DA401C41F1E5
:10059000000192185B411A4301D120F0010010BD07
:1005A0002DE9F04D92469B4611B1B1FA81F202E07D
:1005B000B0FA80F22032904600F052F804460F461E
:1005C00040EA0A0041EA0B0153465A46084313D059
:1005D000114653EA010019D0C8F140025046FFF716
:1005E00011FE05460E4650465946424600F038F880
:1005F000084305D0012004E020463946BDE8F08DCF
:100600000020054346EAE0762C4337430A98630509
:10061000E40AA0EB08000022FD0A44EA47540A302D
:1006200002D500200146E9E7010510196941DDE91D
:10063000084500196941BDE8F04DA2E7064C074D99
:1006400006E0E06840F0010394E8070098471034A2
:10065000AC42F6D3FFF770FDB4420008D442000864
:10066000202A04DB203A00FA02F100207047914072
:10067000C2F1200320FA03F31943904070470000B1
:10068000014800F038B900000C01002070B50446A4
:1006900000688168C943C90717D1816821F0010149
:1006A000816000F0E3FB05460AE000BF00F0DEFBDE
:1006B000401B022804D920688068C043C00706D0C8
:1006C00020688068C043C007F0D0002070BDA06AD9
:1006D00040F01000A062E06A40F00100E0620120FA
:1006E00070BD0000F8B500260446009600688168D9
:1006F000C943C9072DD0816841F0010181601648C6
:1007000016490068B0FBF1F000E0401E00900028A0
:10071000FBD100F0ABFB054616E000BF00F0A6FBE6
:10072000401B022810D920688068C043C0070BD046
:10073000A06A40F01000A062E06A40F00100E062B0
:1007400084F824600120F8BD20688068C043C00799
:10075000E4D10020F8BD00004400002040420F001A
:10076000FEE7000070B503F089FB044603F08CFB44
:100770000546214604A002F04DFA2946BDE8704026
:100780000AA002F047BA000043757272656E7420C9
:100790006672656520686561702073697A653A20C4
:1007A000257A752062797465730A00004D696E6957
:1007B0006D756D2065766572206672656520686569
:1007C00061702073697A653A20257A7520627974A0
:1007D00065730A0070477047F8B50024009490F8DC
:1007E00024202546012A12D0012280F824204A68BC
:1007F0001F23072A0DD20668776B521E02EB820276
:1008000093409F430B6893401F43776319E0022096
:10081000F8BD06680D2A0AD2376BD21F02EB82029E
:1008200093409F430B6893401F43376309E0F76A87
:100830000D3A02EB820293409F430B6893401F43A3
:10084000F7620A68072306680A2A0AD3F7680A3A91
:1008500002EB420293409F438B6893401F43F76033
:1008600008E0376902EB420293409F438B68934054
:100870001F4337610A68102A01D0112A20D1124B78
:1008800002689A4217D193681B0219D4936843F403
:10089000000393600968102912D10C490C4A0968B9
:1008A000B1FBF2F101EB8101490000E0491E00912A
:1008B0000029FBD104E0816A41F02001816201241A
:1008C00080F824502046F8BD002401404400002058
:1008D00040420F0010B5044A0168914203D100F074
:1008E00007F80249886210BD002401400000002082
:1008F0000068C06C704770B50446006806684568BB
:10090000A90625D5B10723D5A16AC90603D4A16AD2
:1009100041F40071A1628168C1F34241072910D1FD
:10092000217B71B9416821F020014160A06A20F467
:100930008070A062A06AC00403D4A06A40F00100E5
:10094000A0622046FFF7C6FF21686FF01200086022
:1009500028062ED570072CD5A06AC00603D4A06A3D
:1009600040F40050A06220688168C1F30231072979
:1009700009D04168490515D48168C1F3424107296E
:1009800010D1217B71B9416821F080014160A06ADA
:1009900020F48050A062A06AC00503D4A06A40F091
:1009A0000100A0622046FFF716FF21686FF00C00DF
:1009B000086068060CD5F0070AD0A06A40F48030C1
:1009C000A062204600F096F821686FF001000860F0
:1009D00070BD00002DE9F04104004FF000057FD00C
:1009E000A06A002628B9E66284F82460204600F058
:1009F00083F82046FFF74AFEA16AC90600D420B159
:100A0000A06A40F01000A0626AE0A16A21F4885157
:100A100041F00201A162334923688B42E16904D1AC
:100A2000B1F5402F01D14FF40021277B4FF4807C9A
:100A300041EA470261680A43A168614508D001297B
:100A400006D0002194F814E0BEF1010F02D00AE0B4
:100A50006146F7E7C7B1A76A47F02007A762E76AD0
:100A600047F00107E7625F6827F469470F435F605B
:100A7000236899681C4F394011439960A16861450A
:100A80000BD0012909D00CE0DFF860E0A7690EEB7C
:100A900047370F4347F40061E5E7218A0D05A5F5C7
:100AA00080152168CB6A23F470032B43CB62216845
:100AB00089680F4B1940914208D1E662A16A21F082
:100AC000020141F00101A162BDE8F081A06A20F0BD
:100AD000020040F01000A062E06A40F00100E06215
:100AE0000120F1E7003C0140FDF7E1FF00E0FFFFDE
:100AF000FE0E1FFF7047000000B585B00021009179
:100B000001910291039100681249884220D1124854
:100B1000816941F400718161816901F4007104917E
:100B2000816941F0100181618069694600F010001F
:100B300004900220009003200190084800F088F8FB
:100B400000220521122000F0E7FC122000F0D6FC64
:100B500005B000BD0024014000100240001001401B
:100B600070B5044690F8240001280DD0012084F8C7
:100B700024002046FFF7B6FD02004FF0000005D02C
:100B800084F82400104670BD022070BDA16A40F6B2
:100B90000163994341F48071A162224D2368224987
:100BA000AB4218D10E6816F4702F14D0A66A46F422
:100BB0008016A6620E68760505D5A66A26F400564C
:100BC00046F48056A662A66AF6040AD5E66A26F0BE
:100BD0000606E66206E0A66A26F48016A6625E684D
:100BE000E9E7E06284F824006FF0020018602068F2
:100BF000436843F02003436020688368C3F34243A3
:100C0000072B05D1A84208D1096811F4702F04D030
:100C1000816841F480118160B4E7816841F4A001EA
:100C2000F9E70000002801400424014070B50446A3
:100C300000F01CF90546601C02D00448007804440A
:100C400000F014F9401BA042FAD370BD3800002018
:100C50002DE9F84FDFF8C8910024A9F1040B2346D1
:100C60000F2709F1040AABF1040ED1E00125A540DC
:100C700006EA0502AA4276D1DFF8A8C14E68A6EBC3
:100C80000C0866452BD00DDC032E34D005DC36B3C2
:100C9000012E19D0022E2FD11BE0112E16D0122EAC
:100CA0002AD119E0B8F5881F19D006DCB8F5803FC5
:100CB00015D0B8F5801F1FD111E0B8F5001F0ED078
:100CC000B8F5041F18D10AE0CB6815E0CB681B1DEE
:100CD00012E0CB6808330FE0CB680C330CE08B6874
:100CE0002BB1012B4FF0080303D0456104E004232E
:100CF00002E0056100E00023FF2A01D8064601E07A
:100D000000F104064FEA840501D9A5F12005D6F8C3
:100D1000008007FA05FC28EA0C0803FA05F548EA02
:100D20000508C6F800804D68ED0070D53E4DAE69EF
:100D300046F00106AE61AD6924F0030605F0010539
:100D400000953A4D06EB050CDCF80850A607360F67
:100D500007FA06F825EA0805DFF8D480404503D1F4
:100D60004FF0000825E052E0DFF8C880404502D18E
:100D70004FF001081DE0DFF8C080404502D14FF080
:100D8000020816E0DFF8B480404502D14FF00308B6
:100D90000FE0DFF8AC80404502D14FF0040808E0D6
:100DA000DFF8A080404502D14FF0050801E04FF088
:100DB000060808FA06F848EA0508CCF808804D68E5
:100DC000D9F80060ED024D4601D5164300E0964388
:100DD0002E604D68DAF80060AD02554601D5164325
:100DE00000E096432E604D68DBF80060AD035D4681
:100DF00001D5164300E096432E604D68DEF8006092
:100E0000ED03754601D5164300E096432E60641C41
:100E10000A681646E2407FF429AFBDE8F88F00006B
:100E200008040140000011100010024000000140C1
:100E300000080140000C0140001001400014014076
:100E400000180140001C01408068084000D00120CB
:100E50007047C26821EA02030A4043EA0241016185
:100E600070470AB1016170470904FBE701488068D7
:100E7000704700003800002070B5040025D094F8B9
:100E80003D00002520B984F83C50204600F07EFA51
:100E9000242084F83D002068016821F001010160F0
:100EA0002068016841F4004101602068016821F474
:100EB0000041016000F0F0FC4D4A6168914201D8A8
:100EC0004C4900E04C49884201D2012070BD4B4999
:100ED0002368B0FBF1F15E6826F03F060E435E60CA
:100EE0006368934206D94FF4967359434FF47A736B
:100EF000B1FBF3F12368491C1E6A26F03F0631431B
:100F000019626168914210D84900401EB0FBF1F2AD
:100F1000521CC2F30B02042A01D2042022E0B0FBCF
:100F2000F1F0401CC0F30B001CE0A268F2B301EB2F
:100F3000C10303EB0116431EB3FBF6F35B1C43F442
:100F400080431B0549D092B301EBC10202EB0111B2
:100F5000401EB0FBF1F0401CC0F30B0040F4804099
:100F600040F400402168CA694CF6FF739A4310436D
:100F7000C861D4E9071001432068026822F0C0026A
:100F800011430160D4E9030101432068826848F2FB
:100F9000FF339A4311438160D4E905010843216876
:100FA000CA6822F0FF021043C86001E00EE016E0BC
:100FB0002068016841F0010101602564202084F867
:100FC0003D00256384F83E50002070BD01EB4106D2
:100FD000431EB3FBF6F35B1CB3E70120C2E701EB52
:100FE0004101401EB0FBF1F0401CC0F30B00B7E71D
:100FF000A086010080841E0000093D0040420F00D1
:101000002DE9FF4F83B00025DDE910799A4693461C
:101010000446DDF848800095FFF728FF064694F85F
:101020003D0020287CD119230122884920460096C2
:1010300001F056FA0028F5D194F83C0001286FD051
:10104000012084F83C0020680168C90703D10168C9
:1010500041F0010101602068016821F40061016034
:10106000222084F83D00402084F83E002564676219
:10107000A4F82A90608D20857548E062CDE900864D
:1010800053465A462046049901F02CF900287CD199
:10109000208DDFF8C091202768B1012814D00228E4
:1010A000206801681ED041F48061016020684169B8
:1010B00080690090BCE02068416981690091016805
:1010C00041F400710160B3E02068016821F480619F
:1010D000016072B62068416981690091016841F43C
:1010E00000710AE041F40061016072B62068416954
:1010F00081690091016821F48061016062B697E026
:10110000032865D801280CD0022843464FF000027E
:101110004946204600960BD001F0E2F9A8BB0CE04E
:1011200091E032464146204601F080FA68BB72E009
:1011300001F0D6F948BB72B633E02068016821F4AB
:101140008061016072B620680069616A0870606A37
:10115000401C6062208D401E2085608D401E608591
:101160003D4846F2A8110068B0FBF1F0C0EBC000AA
:1011700000EB80000090401E009007D0206840697E
:10118000C04340070DD50098F5E727E044F8305FED
:101190006773A573206940F02000206162B6257353
:1011A0001CE02068016841F400710160206800695A
:1011B000616A0870606A401C6062218D491E218549
:1011C000618D491E618562B621680969017026E05A
:1011D00032464146204601F029FA18B1012007B0F5
:1011E000BDE8F08F20680069616A0870606A401C81
:1011F0006062208D401E81B22185608D401E608519
:1012000020684269D243520712D4032903D10168EE
:1012100021F48061016020680069616A0870606A79
:10122000401C6062208D401E2085608D401E6085C0
:10123000208D00287FF464AF84F83D7084F83E5020
:1012400084F83C50CBE70220C9E700000200100000
:101250000000FFFF04000100440000202DE9FF4FC3
:1012600083B09A46DDE9119793460446DDF8408045
:10127000FFF7FCFD054694F83D0020287FD1192397
:10128000012240492046009501F02AF9002876D134
:1012900094F83C00012872D0012084F83C002068BA
:1012A0000168C90703D1016841F0010101602068AC
:1012B000016821F400610160212084F83D00402094
:1012C00084F83E0000262664C4F82480A4F82A90FE
:1012D000608D20852C48E062CDE9007553465A4662
:1012E0002046049901F07CF870B930E02A4639466E
:1012F000204601F0D3F958B1206C042804D12068AD
:10130000016841F400710160012007B0BDE8F08F71
:10131000606A216800780861606A401C6062218D03
:10132000491E89B22185628D521E628522685369E9
:10133000DB435B070BD469B100781061606A401C25
:101340006062208D401E2085608D401E6085208D4E
:101350000028CBD12A463946204601F095F80028CE
:10136000CAD154F83D0B016841F40071016020209E
:1013700004F81E09E67766770020C6E7FFE702203B
:10138000C3E70000020010000000FFFF10B586B0A8
:101390000021009101910291039100680F49884258
:1013A0001AD10F4CA06940F00800A061A0696946FD
:1013B00000F008000490C02000901220019003204B
:1013C00003900848FFF744FCE06940F40010E06136
:1013D000E06900F40010049006B010BD0054004015
:1013E00000100240000C014002488168027811445C
:1013F0008160704738000020074810B5016841F04F
:1014000010010160032000F0A7F80F2000F006F89B
:1014100000F050F8002010BD0020024030B5054615
:10142000204887B0C16941F00101C161C06906A9C6
:1014300000F00100009001A800F00EFA0498B8B185
:1014400000F02AFA400018494FF08042B0FBF1F159
:101450001648491E0260416040F2E7320021C0E9AF
:1014600003218160816100F063FD040003D015E079
:1014700000F012FAE7E70D4800F0A6FD04000DD1D8
:101480001C2000F03BF8102D07D2002229461C201A
:1014900000F042F80648056000E0012407B020464D
:1014A00030BD00000010024040420F0080050020C7
:1014B0003C0000200F4808B5816941F001018161BD
:1014C000816901F001010091C16941F08051C16160
:1014D000C069002200F0805000900F21901E00F0A3
:1014E0001BF80548416821F0E06141F0007141605E
:1014F00008BD00000010024000000140002809DB88
:1015000000F01F02012191404009800000F1E0201D
:10151000C0F8001170470000F0B40E4B1B680C4679
:10152000C3F30223C3F10705042D00D90425191DB7
:10153000072901D2002300E0DB1E012606FA05F18F
:10154000491E214099409E40761E16403143F0BC12
:1015500001F070BB0CED00E0064900F007020868DE
:101560004FF6FF03184040EA0220034A1043086088
:10157000704700000CED00E00000FA050149012071
:101580000862704700000E4210B501460020284C4A
:1015900004292FD00BDC012930D0022929D100F0F9
:1015A0008BF96168C1F38131491C49001FE00829AA
:1015B00020D010291DD161682268D20119D51D489B
:1015C000C1F38342C903805C0AD56168194AC1F33B
:1015D0004041921E515C184AB2FBF1F1484301E0D0
:1015E000164948436168490203D440000321B0FB17
:1015F000F1F010BDBDE8104000F06EB9226AC2F3F0
:101600000121012903D1920701D5C80310BD022988
:1016100005D1626A920702D549F6404010BD032900
:10162000FCD121688903F9D54FF2244010BD000098
:10163000001002403842000800127A0000093D0004
:101640002DE9F84305460078354CC00754D0E069D1
:101650000026C00008D4E06940F08050E061E069F5
:10166000012600F0805000902E480168C90512D470
:101670000168804641F480710160FFF7F7FB07467F
:1016800005E000BFFFF7F2FBC01B642823D8D8F8A1
:101690000000C005F6D5206A10F4407021D0A9885A
:1016A00001F4407181421CD0206A1F49012220F4BC
:1016B00040700A6000220A602062C00711D0FFF764
:1016C000D5FB074641F2883808E000BFFFF7CEFBA4
:1016D000C11B414502D90320BDE8F883206A800779
:1016E000F4D5206A696820F44070084320621EB176
:1016F000E06920F08050E0612878800705D56068B7
:10170000A96820F44040084360602878C00605D5E9
:101710006068696920F48000084360600020DBE7AE
:101720000010024000700040400442422DE9F047A2
:101730000F46050061D0434E306800F00700B84204
:1017400009D2306820F0070038433060306800F07C
:101750000700B84251D128683B4C810712D5400799
:1017600003D5606840F4E06060602878000703D526
:10177000606840F4605060606068A96820F0F00024
:10178000084360602878C00728D06868012810D016
:101790002168022810D0890700292EDA616821F01B
:1017A000030101436160FFF761FB804641F2883924
:1017B0000DE021688903EFE78901EDE7FFF756FBAC
:1017C000A0EB0801494502D90320BDE8F087606815
:1017D000696800F00C00B0EB810FEFD1306800F0C9
:1017E0000700B8420BD9306820F00700384330605A
:1017F000306800F00700B84201D00120E5E7287802
:10180000400705D56068E96820F4E060084360603F
:101810002878000706D56068296920F4605040EAFE
:10182000C100606000F058F86168084AC1F3031114
:10183000515CC8400649086006480068FFF7EEFDA5
:101840000020C2E700200240001002404842000889
:10185000440000203C0000200F2202600C4A536824
:1018600003F003034360536803F0F003836053689D
:1018700003F4E063C36052684FF4E06303EAD2020A
:1018800002610448006800F007000860704700002B
:1018900000100240002002400448054900684968E1
:1018A000044AC1F30221515CC84070474400002043
:1018B0000010024058420008044805490068496881
:1018C000044AC1F3C221515CC84070474400002063
:1018D00000100240584200080E4A51680E4801F0BC
:1018E0000C03042B11D0082B0FD10C48C1F38343F8
:1018F000C903C05C0AD55168084AC1F34041921E31
:10190000515C054A5043B0FBF1F07047044948432D
:10191000704700000010024000127A0026420008C2
:1019200000093D002DE9F84F040070D02078C04D2B
:10193000C00749D06868C0F38100012807D06868F3
:10194000C0F38100022809D16868C00306D5286861
:10195000800339D560680028E7D035E06068B0F5CD
:10196000803F0BD010B1B0F5A02F11D0286820F423
:1019700080302860286820F4802002E0286840F445
:1019800080302860606890B1FFF770FA06460AE080
:10199000286840F480202860F0E700BFFFF766FA6F
:1019A000801B642873D828688003F7D50CE0FFF704
:1019B0005DFA064605E000BFFFF758FA801B642871
:1019C000F0D828688003F7D420789A4E80074FF02B
:1019D00001094FF0000839D5686810F00C0F07D0E6
:1019E0006868C0F38100022809D16868C00306D482
:1019F0002868800714D52069012808D110E02069E3
:101A0000B0B1C6F80090FFF731FA074605E00AE1E9
:101A1000FFF72CFAC01B0228C4D828688007F7D526
:101A20002868616920F0F80040EAC10028600DE0F4
:101A3000C6F80080FFF71AFA074604E0FFF716FA27
:101A4000C01B022823D828688007F7D42078000715
:101A50002CD57948A169D9B1C0F80090FFF706FAF2
:101A6000074604E0FFF702FAC01B02280FD8686A95
:101A70008007F7D571484FF4FA510068B0FBF1F0D8
:101A8000009000BF0098411E0091FAD20EE080E065
:101A9000C0F80080FFF7EAF9074604E0FFF7E6F92F
:101AA000C01B022875D8686A8007F7D420784007E1
:101AB00060D5E8690027C00008D4E86940F080508C
:101AC000E861E869012700F0805000905C480168F7
:101AD000C90513D40168834641F480710160FFF7A2
:101AE000C5F9824606E000BFFFF7C0F9A0EB0A0087
:101AF00064284ED8DBF80000C005F5D5E068012861
:101B00000AD008B1052813D0286A20F00100286205
:101B1000286A20F0040002E0286A40F001002862F0
:101B2000E06841F2883B98B1FFF7A0F982460BE0EC
:101B3000286A40F004002862EEE700BFFFF796F93C
:101B4000A0EB0A0159455AD8286A8007F6D50CE05F
:101B5000FFF78CF9824605E0FFF788F9A0EB0A0150
:101B600059454CD8286A8007F6D41FB1E86920F09F
:101B70008050E861E06988B36968C1F38101022996
:101B800044D00228C6F8608004D0FFF76FF90446FD
:101B900038E034E0FFF76AF9074604E0FFF766F93A
:101BA000C01B02282BD828688001F7D4206AB0F522
:101BB000803F05D16868A16820F400300843686060
:101BC000D4E908010843696821F474110843686086
:101BD000C6F86090FFF74AF9044606E025E000BF2A
:101BE000FFF744F9001B022809D828688001F7D5BF
:101BF0001BE000BFFFF73AF9001B022802D90320BF
:101C0000BDE8F88F28688001F4D40EE00128F7D0F1
:101C10006868226A00F48031914204D1616A00F45C
:101C20007010884201D00120EAE70020E8E70000B8
:101C30000010024000004242800442424400002062
:101C40000070004070B5040003D0607C002610B125
:101C500005E0012070BD2674204600F03DF802200A
:101C60006074204600F052F8042550BB204600F076
:101C70005DFE30BB2068416821F007014160A0682B
:101C800020B11448016821F0010101601148001FD2
:101C90000168A26821F46071114301606068411C11
:101CA00004D10120FFF770FC58B1401E2268C0F338
:101CB00003419160216880B2C860204600F050FE68
:101CC00008B16574C5E7E67301206073A0736074A2
:101CD000002070BD306C004008B50068084988429B
:101CE0000DD1FFF74BFC0748C16941F00061C161AC
:101CF000C069054900F0006000900120086008BD3F
:101D000000280040001002403C04424270B504002C
:101D10000AD02068416821F008014160FFF7A6F869
:101D200005464FF47A7608E0012070BDFFF79EF873
:101D3000401BB04201D9032070BD206840680007F5
:101D4000F4D5002070BD70B5040009D0606A00258C
:101D500040B125616561A56294F8510040B10CE085
:101D6000012070BD6068B0F5827FF4D0E561F2E7D4
:101D700084F85050204600F03FF8022084F85100CB
:101D80002068016821F040010160A088218900F4E9
:101D9000827001F404410843A18901F40061084301
:101DA000217C01F002010843217D01F0010108437B
:101DB000218B01F400710843217F01F038010843B1
:101DC00094F8201001F080010843218D01F40051A6
:101DD000084321680860A069042101EA10402168D5
:101DE00048602068C16921F40061C1616565012016
:101DF00084F85100002070BD30B585B000240094F7
:101E0000019402940394254D03682548022103227E
:101E1000AB421AD1836943F480538361836903F42D
:101E200080530493836943F00403836180691D4DEB
:101E300000F004000490A020CDE90001039269465F
:101E40002846FEF705FF40201EE0174DAB4222D189
:101E5000C36943F48043C361C36903F480430493BB
:101E6000836943F0080383618069104D00F0080026
:101E700004904FF42040CDE90001039269462846C2
:101E8000FEF7E6FE4FF48040CDE90004694628469F
:101E90000294FEF7DDFE05B030BD000000300140C9
:101EA000001002400008014000380040000C0140D2
:101EB0007047704770B590F83C20012A2CD001245F
:101EC00080F83C40022280F83D2003685A689D68F3
:101ED00022F070060A6832435A60104B02689A4238
:101EE0000ED00F4B9A420BD0B2F1804F08D00D4B61
:101EF0009A4205D00C4B9A4202D00C4B9A4204D124
:101F0000496825F080031943916080F83D40002125
:101F100080F83C10084670BD022070BD002C0140C6
:101F2000003401400004004000080040000C004064
:101F300010B5040003D094F83D0010B107E0012073
:101F400010BD002084F83C00204600F01FF802205D
:101F500084F83D00211D206800F0B0FD012084F8C8
:101F6000460084F83E0084F83F0084F8400084F87E
:101F7000410084F8420084F8430084F8440084F867
:101F8000450084F83D00002010BD000008B5006841
:101F90000B49884212D10B48C16941F01001C1615F
:101FA000C069002200F01000009005213620FFF7E4
:101FB000B3FABDE808403620FFF7A0BA08BD00001C
:101FC000001000400010024090F83D10012901D09F
:101FD00001207047022180F83D100168CA6842F074
:101FE0000102CA6000680E4988420ED00D4988423D
:101FF0000BD0B0F1804F08D00B49884205D00B4977
:10200000884202D00A49884204D1816801F0070160
:10201000062903D0016841F00101016000207047EA
:10202000002C014000340140000400400008004042
:10203000000C004070472DE9F04104460068C66876
:1020400005694FF00007A90713D5B10711D5F91E8F
:10205000016101202077206880698007204602D036
:10206000FFF7E8FF04E000F07EF8204600F07CF87F
:102070002777680716D5700714D521686FF004001C
:102080000861022020772068806910F4407F204694
:1020900002D0FFF7CFFF04E000F065F8204600F023
:1020A00063F82777280715D5300713D521686FF017
:1020B00008000861042020772068C0698007204656
:1020C00002D0FFF7B7FF04E000F04DF8204600F023
:1020D0004BF82777E80616D5F00614D521686FF07F
:1020E00010000861082020772068C06910F4407F44
:1020F000204602D0FFF79EFF04E000F034F82046AF
:1021000000F032F82777E80708D0F00706D02168FA
:102110006FF001000861204600F028F8280608D575
:10212000300606D521686FF0800008612046FFF771
:10213000BFFE680608D5700606D521686FF040001E
:102140000861204600F02CF8A8060AD5B00608D58C
:1021500021686FF0200008612046BDE8F041FFF7DC
:10216000A8BEBDE8F08170477047000010B5044676
:102170000068B0F1804F01D1FFF736F906492068B9
:10218000884207D10548D0E90C12491C42F10002EF
:10219000C0E90C1210BD000000100040000000203B
:1021A000704770B5040004D094F84100002510B1C8
:1021B00006E0012070BD84F84050204600F024F86D
:1021C000242084F841002068C16821F40051C160D6
:1021D000204600F0C1FC2068016921F490410161B2
:1021E0002068416921F02A0141612068C16841F4F9
:1021F0000051C1606564202084F8410084F84200E9
:102200006563002070BD000070B586B000240094A6
:10221000019402940394234E03682349022003226D
:10222000224DB34219D18B6943F480438B618B6992
:1022300003F4804304938B6943F004038B61896941
:10224000039201F0040104910102CDE900106946F6
:102250002846FEF7FDFC28151BE0154EB3421FD1A2
:10226000CB6943F40033CB61CB6903F400330493AF
:102270008B6943F004038B618969039201F00401C7
:1022800004910421CDE9001069462846FEF7E0FCE0
:102290000820CDE90004694628460294FEF7D8FCE0
:1022A00006B070BD00380140001002400008014037
:1022B00000440040FEE701684A69D24352050FD44A
:1022C0006FF480624A61002140F8301F202242737F
:1022D0008173026942F004020261017301207047B8
:1022E000002070472DE9F84F0446006889460B9D91
:1022F00001689846174641F48061016020680168D2
:1023000041F48071016000954FF0011B0022594695
:1023100020460A9B00F0E4F84FF4007A40B12068B0
:102320000068C00501D5C4F840A00320BDE8F88FBF
:10233000216809F0FE0008612B46284920460A9AC8
:1023400000F016F9F0BB20684169806900902A46C8
:1023500020460A9900F0A2F940B1206C04283AD135
:102360002068016841F40071016034E0FEB2B8F108
:10237000010F09D02168380A08612A4620460A99C7
:1023800000F08CF90028E8D1206806612A46204632
:102390000A9900F083F90028DFD12068016841F430
:1023A0008071016000950022594620460A9B00F08A
:1023B00097F80028B3D1216809F0FF0040F0010030
:1023C000086100E007E02B46044920460A9A00F025
:1023D000CFF80028AAD00120A8E7000002000100E1
:1023E0002DE9F843044600680D46DDE908970168C9
:1023F0009846164641F4807101604B4600224FF02A
:1024000001112046009700F06BF848B12068006881
:10241000C00502D54FF4007020640320BDE8F883A6
:10242000216805F0FE0008613B464A4615492046F2
:1024300000F09EF888B920684169806900903A46AA
:102440004946204600F02AF948B1206C042804D1FE
:102450002068016841F4007101600120DEE7F5B2F7
:10246000B8F1010F09D02168300A08613A4649469F
:10247000204600F013F90028E7D12068056100200C
:10248000CCE700000200010070B516460D46044678
:102490001EE02046FFF70FFF08B1012070BD681C49
:1024A00016D0FEF7E3FC801BA84200D885B920684F
:1024B0004069C04340070BD5002044F8300F20216D
:1024C0006173A073216941F0200121612073E4E769
:1024D00020684069C0434007DBD4002070BD000085
:1024E0002DE9F047984617460D460446C1F30746C6
:1024F000DDF820902AE000BFB8F1FF3F26D0FEF7BC
:10250000B5FCA0EB0901414502D8B8F1000F1DD17F
:102510002068012E16D0806925EA00000004000C16
:1025200012D00020B84211D1002044F8300F2021F1
:102530006173A073216941F02001216120730120A2
:10254000BDE8F0874069E7E70120EBE72068012E4E
:102550000AD0806925EA00000004000C06D00020A3
:10256000B842C9D00020EBE74069F3E70120F7E764
:102570002DE9F047984616460D4604464FF00009EF
:102580004FF0200AC1F3074723E020684069C043A9
:10259000400515D42068016841F40071016021688C
:1025A0006FF480604861C4F8309084F83DA084F8EE
:1025B0003E90216C41F00401216484F83C9021E0BC
:1025C000701C06D0FEF752FCA0EB0800B04203D806
:1025D00016B1012F1FD021E02068012F15D080698E
:1025E00025EA00000004000C18D000BF44F8309F1A
:1025F00084F80DA084F80E90216941F0200121613A
:1026000084F80C900120BDE8F087406925EA0000BD
:102610000004000CEAD12068406901E0206880696C
:1026200025EA00000004000CAFD1ECE72DE9F041F1
:10263000002590460E460446202728E04069C04306
:10264000C0060CD454F8301B6FF01000486144F8F9
:1026500010596777A577206A2062257714E0FEF786
:1026600005FCA0EB0800B04200D886B9206840699C
:10267000C04340060BD544F8305F6773A5732069EB
:1026800040F02000206125730120BDE8F081206822
:102690004169C9434906D1D40020F6E770B5164612
:1026A0000D4604461EE02046FFF705FE08B1012056
:1026B00070BD681C16D0FEF7D9FB801BA84200D85D
:1026C00085B920684069C04300060BD5002044F856
:1026D000300F20216173A073216941F02001216135
:1026E0002073E4E720684069C0430006DBD4002083
:1026F00070BD00003EB5002411480094019402947E
:102700000E498460016004730475012505614FF46E
:1027100060214460C161FEF75DF908B172B6FEE761
:102720000B20CDE90005694602940548FEF754F8F0
:10273000002801D072B6FEE73EBD00000024014033
:102740000C0100202DE9F04F85B000244F48009483
:10275000019402940394816941F0100181618169BF
:1027600001F010010491816941F08001816181696A
:1027700001F080010491816941F004018161816966
:1027800001F004010491816941F0080181618169CE
:1027900001F008010491816941F0200181618169A2
:1027A00001F020010491816941F4807181618069A7
:1027B000DFF8DC8000F480704FF480750490002214
:1027C00029464046FEF74DFBDFF8C8900022052160
:1027D0004846FEF746FBDFF8C0A000221021504615
:1027E000FEF73FFBDFF8B4B0012223215846FEF785
:1027F00038FB6F00002239462948FEF732FB68019A
:10280000CDE90004694648460294FEF721FA009596
:10281000022601250396CDE9015469464046FEF79C
:1028200017FA0520CDE90005CDE90246694648467C
:10283000FEF70EFACDE90054694650460294FEF7C1
:1028400007FA1020CDE90005CDE902466946504659
:10285000FEF7FEF92320CDE90005CDE902466946E1
:102860005846FEF7F5F94020CDE9000469460D48C9
:102870000294FEF7EDF900970396CDE901546946FD
:102880000748FEF7E5F905B0BDE8F08F00100240FB
:10289000001C01400010014000080140000C0140F4
:1028A00000200140001401400E4810B50C490160A1
:1028B0004FF48271416000218160C1604FF4007269
:1028C0000161C0E90512C1610162416281620A21B0
:1028D000C162FFF738FA002801D072B6FEE710BDDA
:1028E00000300140A40100200E4810B50C490160E1
:1028F0004FF48271416000218160C1604FF4007229
:102900000161C0E90512C1610162416281620A216F
:10291000C162FFF718FA002801D072B6FEE710BDB9
:1029200000380040FC010020FEE7FEE770B50446D9
:10293000FEF79CFA05464FF47A7606E0FEF796FA23
:10294000401BB04201D9032070BD2068406880065A
:10295000F4D52068416841F010014160002070BD4D
:1029600070B504460068416821F010014160FEF72F
:102970007DFA05464FF47A7607E000BFFEF776FA57
:10298000401BB04201D9032070BD2068406880061A
:10299000F4D5002070BD000010B5114C0F48012186
:1029A00020600820E06161610020A06002212161B7
:1029B0000721C4E90A01E0604FF400712062A161BF
:1029C00060624FF4827060602046FFF7BCF92068B7
:1029D000016841F04001016010BD0000003001407D
:1029E000B40000204FF4FA74204600F0A1FDFBE78C
:1029F00010B5502080F31188BFF34F8FBFF36F8F56
:102A000001F0F4FA18B104494FF08050086000203A
:102A100080F3118810BD000004ED00E030B595B0E2
:102A200028216846FDF717FC14210AA8FDF713FCBE
:102A300018210FA8FDF70FFC0121052000240090AC
:102A4000CDE902414FF48030019002250491CDE997
:102A500007504FF4E01009906846FEF763FF08B195
:102A600072B6FEE70F20CDE90A054FF48060CDE98C
:102A70000C400E9002210AA8FEF758FE08B172B66B
:102A8000FEE703200F904FF480701090C00111906A
:102A90000FA8FEF7D5FD002801D072B6FEE715B0ED
:102AA00030BD70470148FFF7C6BA0000800500201E
:102AB0000148FFF7C0BA000054020020F0B50268D8
:102AC000204C214D214E224F224B4FF0804CA042F2
:102AD00009D0984207D0604505D0A84203D0B04243
:102AE00001D0B84204D122F0700E4A6842EA0E02C8
:102AF000A04209D0984207D0604505D0A84203D033
:102B0000B04201D0B84203D122F44075CA682A43CA
:102B10004D6922F080022A4302608A68C2620A6814
:102B20008262A04201D0984201D10969016301216A
:102B300041610169C90703D0016921F00101016107
:102B4000F0BD0000002C01400004004000080040DF
:102B5000000C00400034014070B504460068016973
:102B6000E26821F44051114301612169A0680843E2
:102B7000616908432168CA6841F20C639A430243C1
:102B8000CA6020684169A26921F440711143416122
:102B90001E492068884202D1FEF78EFE01E0FEF752
:102BA0007BFE00EBC00101EB001260686421800035
:102BB000B2FBF0F3B3FBF1F36FF018067343B2FB13
:102BC000F0F5B2FBF0F605EB8305322303EB0515B8
:102BD000B5FBF1F5B6FBF1F605F0F00505EB0615D2
:102BE000B2FBF0F6B2FBF0F0B0FBF1F06FF01802C0
:102BF000504306EB800003EB0010B0FBF1F02168BE
:102C000000F00F002844886070BD000000380140CB
:102C1000FEE700000FB4054B10B503A9044A029863
:102C200000F028F810BC5DF814FB000031320008F9
:102C3000B00000200907090E002804DB00F1E020A5
:102C400080F80014704700F00F0000F1E02080F8D9
:102C5000141D704702E008C8121F08C1002AFAD1EB
:102C600070477047002001E001C1121F002AFBD10C
:102C7000704700002DE9FF4F8DB09B460F4604467C
:102C8000002606E025280BD05A460F999047641C71
:102C9000761C20780028F5D111B03046BDE8F08FC1
:102CA0000025A8460122984900E0054314F8013F99
:102CB000203B02FA03F00842F7D120782E2817D1E2
:102CC00014F8010F45F004052A280ED06FF02F02EA
:102CD0002078A0F1300109290AD808EB880102EB1D
:102CE000410100EB0108641CF2E757F8048B641CF7
:102CF00020786C280DD004DC4C2812D06A2811D121
:102D000004E074280DD07A280CD10AE045F40015AF
:102D100007E0617845F48015814202D1641C05F515
:102D20008015641C2078692844D008DC0028B3D0C2
:102D3000582867D063280FD0642808D13AE070285B
:102D400065D0732812D075285AD078285AD05A46A0
:102D50000F999047761CD5E017F8040B8DF800000A
:102D600000208DF80100E946012003E057F8049B9C
:102D70004FF0FF3069074FF0000501D40AE06D1CE9
:102D800045450DDA8542FADB19F805100029F6D120
:102D900006E06D1C8542FCDB19F805100029F8D10E
:102DA0002E4404E019F8010B5A460F9990476D1E06
:102DB000F8D2A7E00A200021CDE90801C5F30250AE
:102DC00002280CD001CFC117021E71F100020CDAEB
:102DD0000023D0EB030063EB01012D2208E0FF1D6F
:102DE00027F00707F7E80201EEE72A0504D52B22B2
:102DF0008DF8282001223CE0EA073AD02022F7E7AC
:102E00000A2000E010200021CDE9080107E0102091
:102E1000002145F00405CDE908014FF00808C5F38D
:102E20000250022810D001CF00214FF0000A2A07DB
:102E300020D52278702A0DD0DDE908C38CF0100C63
:102E40005CEA030C0CD015E0FF1D27F00707F7E83C
:102E50000201EAE740228DF828204FF0010A0CE039
:102E600050EA010306D030238DF828308DF8292050
:102E7000022292462278582A04D024A20DF1200979
:102E80000B9209E026A2F9E7DDE90823FDF711FB23
:102E90000B9B9B5C09F8013D50EA0102F4D1ADEBBC
:102EA000090020300890680701D44FF00108089904
:102EB000884503DD0898A8EB000000E0002080466C
:102EC000002506E00AA85A46405D0F9990476D1C00
:102ED000761C5545F6DB04E030205A460F999047A2
:102EE000761CB8F10001A8F10108F5DC05E019F83D
:102EF000010B5A460F999047761C0899481E089076
:102F00000029F4DC641CC4E60928010030313233A6
:102F10003435363738396162636465660000000015
:102F200030313233343536373839414243444546FF
:102F30000000000038B50C4617284AD2DFE800F040
:102F40000C10141C4925292D3149353F494949495F
:102F50004949494A4E52560001212246002048E084
:102F600001212246022044E022460121102000F0E7
:102F70005FFD207800092BE022460121102000F09F
:102F800057FD207800F00F0022E0012122461A2090
:102F90002FE0012122461B202BE0012122461C208C
:102FA00027E0012122461D2023E06A46012120203E
:102FB00000F03EFD9DF80000C0F3810008E06A4685
:102FC0000121202000F034FD9DF8000000F00300F6
:102FD000207038BD012122462A200AE00121224624
:102FE0002B2006E0012122462C2002E0012122466E
:102FF0002D20BDE8384000F01BBD10B50421002095
:1030000000F02AFF6420FDF711FE0321002000F0EC
:103010009FF86420FDF70AFEBDE81040AFF3008082
:1030200070B5642060F30F044FF47A7060F31F44AE
:10303000012060F307022146052000F007FD7820FB
:1030400060F30F044FF4167060F31F441320A5B211
:103050004FF47F76B54203D905F0030100F078F80C
:10306000C5F38701142000F073F8240CB44204D98E
:1030700004F00301152000F06BF8A108BDE87040D2
:10308000162000F065B80000F8B5002401210C20DE
:1030900000F0B6FC064669460220FFF74BFF9DF89C
:1030A000000038B1134D01280BD002280FD003289F
:1030B00013D01CE03046FDF7BAF94FF066320E4BE4
:1030C00010E03046FDF7B3F92A460C4B0AE03046D3
:1030D000FDF7ADF92A460A4B04E03046FDF7A7F9A3
:1030E000084A094BFDF7C2F8FDF7C7F90446204628
:1030F000F8BD0000B1BFEC9E6666D63F3C2CB43FE5
:103100003C2C943F6EA301BC0512743F10B5012105
:103110000A2000F075FC00F00301C0F3072008440A
:1031200010BD10B501210E2000F06AFC8109C9070D
:1031300002D1810BC90702D04DF6031010BDC0F3B8
:103140000522014662F31F1100F40040084310BD40
:1031500038B50C460021172859D2DFE800F00C0FD3
:10316000121F582F323538583B475858585858581E
:1031700058595C5F62002146002054E0214602203D
:1031800051E06A460121102000F052FC9DF8000039
:1031900000F0CF0040EA0410C1B20BE08DF800103F
:1031A0006A460121102000F043FC9DF8000000F069
:1031B000F00121438DF80010102026E021461A204E
:1031C00031E021461B202EE021461C202BE0214629
:1031D0001D2028E08DF800106A460121202000F013
:1031E00027FC9DF8000000F0F3010AE08DF80010C4
:1031F0006A460121202000F01BFC9DF8000000F031
:10320000FC0121438DF80010202000F025FE38BD80
:1032100021462A2007E021462B2004E021462C20CD
:1032200001E021462D20BDE8384000F015BE000029
:1032300004490A685206FCD5024AC1B2121D116047
:1032400070470000003801404FF4FA740348FDF75E
:1032500087FC204600F06CF9F8E700000C01002024
:10326000084C4FF4FA7500BFFFF70EFFE062FFF75E
:1032700058FF6080FFF74AFFA080284600F058F909
:10328000F2E7000000000020224E234C234F75146B
:1032900001213046FDF7D8FD012818D1052000F0A6
:1032A00047F901213046FDF7CFFD80B901221146D3
:1032B0002046FDF7D6FD322000F03AF901213846CC
:1032C000FDF7C7FD002201212046FDF7CAFD294672
:1032D0002046FDF7B9FD012818D1052000F028F996
:1032E00029462046FDF7B0FD80B90122114620464F
:1032F000FDF7B7FD322000F01BF902213846FDF73B
:10330000A8FD002201212046FDF7ABFD012000F0C1
:103310000FF9BDE70008014000100140000C01401A
:10332000054C4FF4FA7520212046FDF792FD284602
:1033300000F0FEF8F7E70000000C0140ACB0FEF72B
:103340005BF8FFF76BFBFFF7FDF9FFF7D3F9674871
:103350006549002401606649C0E901144FF48041C9
:10336000C0E9034144618461C4610462FDF784FDE6
:1033700008B172B6FEE75D485E49543001604FF017
:10338000FF3141604FF480718160FEF75BFC08B152
:1033900072B6FEE759482A9457492B940160482198
:1033A000C0E9011440F2E731C16080218161FEF77C
:1033B000BFFD08B172B6FEE72A942AA94F482B94A4
:1033C000FEF778FD08B172B6FEE74C484C4948302C
:1033D0000C2501604FF4E131C0E90114C460C0E97B
:1033E00004458461C461FEF7DCFE08B172B6FEE7F5
:1033F00042484449903001604FF41651C0E901142D
:10340000C460C0E904458461C461FEF7CAFE08B126
:1034100072B6FEE7FFF748FAFFF766FA3748FEF79D
:10342000D3FDFFF7EAFDFFF7B7FA1C2236496846DD
:10343000FCF7F8FE0021684600F086F8334C32496C
:103440001C22A0601C3107A8FCF7ECFE002107A895
:1034500000F07AF82C49E0601C2238310EA8FCF705
:10346000E1FE00210EA800F06FF8274920611C2220
:10347000543115A8FCF7D6FE002115A800F064F819
:10348000214960611C2270311CA8FCF7CBFE002191
:103490001CA800F059F81C49A0611C228C3123A8FB
:1034A000FCF7C0FE002123A800F04EF8E061FDF714
:1034B00059F917A0FFF7AEFB00F041F8E06800F003
:1034C0006DF8206900F06AF8606900F067F8A0699B
:1034D00000F064F8E06900F061F8206A00F05EF83E
:1034E000606A00F05BF8E9E7005400403C0100200E
:1034F000A086010000280040001000405402002077
:1035000000380140004400407C41000800000020D9
:103510005374617274207363686564756C65720DB1
:103520000A00000001460020842900D0C81C704712
:1035300010B500B9012000F0A7FB002010BD10B5A8
:1035400000F01EFC002010BD7FB50D460446416909
:10355000B0F9080081B1A16971B1FFF7E3FFD4E9C7
:1035600005128DE80700D4E900102B46226900F00F
:1035700012FD039004B070BDFFF7D4FF03A9CDE99D
:103580000001208A2B4682B2D4E9001000F0D6FC5C
:10359000012801D00020EDE70398EBE710B500F01B
:1035A00099FB002010BD4FF4FA742046FFF7C0FFCE
:1035B000FBE700002DE9F041184C0F460546E66890
:1035C0002068001D00F098FA38B9206890F82C1097
:1035D00001208840216981432161681C07D137B1EE
:1035E0002168BDE8F0410E48091D00F0C9BA206805
:1035F0003544B5424560216805D2A06BBDE8F04175
:10360000091D00F0A5BA606B091D00F0A1FAA06ABF
:10361000854200D2A562BDE8F0810000480000208C
:10362000A40600202DE9F041054600F0B5FA2E4C25
:10363000A068401CA06020682C4F10B1606940B3A6
:103640002DE02560A068012829D1002606EB860020
:1036500007EB800000F06EFA761C072EF6D32348A5
:103660008C3000F067FA2148A03000F063FA1F4860
:10367000B43000F05FFA1D48C83000F05BFA1B4818
:10368000DC3000F057FA19488C3060631430A063C6
:1036900005E02068E96AC06A884200D82560606A4F
:1036A000401C6062E96A0120226988401043206161
:1036B00001EB810007EB8000291D00F061FA00F0AA
:1036C0008BFA606900280CD02068E96AC06A8842D9
:1036D00007D207494FF080500860BFF34F8FBFF308
:1036E0006F8FBDE8F081000048000020C805002071
:1036F00004ED00E010B5044690F8510058B10128DF
:103700000CD002280FD0502080F31188BFF34F8FC8
:10371000BFF36F8FFEE7206B00F072FA2046BDE822
:10372000104000F06DBA10BD10484FF480414207C0
:1037300006D0C01D0D4920F00700411AC1F5804197
:103740000B4A00230144C2E900030839183A21F06A
:10375000070111604B600B600B1AC0E90013936006
:103760004FF000405360506170470000B8060020E1
:103770009C000020144E154CA6F1C8074FF080584D
:10378000DFF84C9012E000BF00F006FAF068C56860
:10379000281D00F0B1F9A068401EA0606068401EBE
:1037A000606000F019FA2846FFF7A4FF606800285F
:1037B000EAD138680128F9D9C9F80080BFF34F8FE2
:1037C000BFF36F8FF2E70000900600204800002052
:1037D00004ED00E02DE9F0479A46DDE909848146D1
:1037E0006FF00303206B03EB82021044089E20F06D
:1037F0000707780707D0502080F31188BFF34F8F59
:10380000BFF36F8FFEE7002561B1002023180A5C2B
:1038100083F834200A5C12B1401C1028F6D384F8D7
:10382000435001E084F83450072E00D30626E662A8
:10383000C4E91165201D00F088F904F1180000F0BA
:1038400084F92461C6F107006462A061E56484F82C
:10385000505052464946384600F0C0F82060B8F152
:10386000000F01D0C8F80040BDE8F08730B511491D
:1038700000E011460A688242FBD34B685C18844220
:1038800003D1406818444860084643681C189442B5
:1038900009D1084C183C2468A24209D052681A4445
:1038A00042600A6812680260814200D0086030BD40
:1038B0000460F9E79C0000200648416B096829B1C3
:1038C000416BC968C9684968816270474FF0FF3130
:1038D000FAE700004800002008484068401C4FF00C
:1038E000500080F3118804D0BFF34F8FBFF36F8F68
:1038F000FEE7BFF34F8FBFF36F8FFEE7A4000020FA
:103900002DE9F0410546002700F070FA324E30688C
:1039100008B9FFF709FF706905424ED1C5B30835F4
:1039200068070ED005F00700C0F1080005446807DD
:1039300007D0502080F31188BFF34F8FBFF36F8FF4
:10394000FEE72DB37068854237D82348183001460A
:103950000C6801E020460C466168A94202D2216849
:103960000029F7D131688C4227D0076821680160AF
:1039700060680837411B10290FD96019420708D029
:10398000502080F31188BFF34F8FBFF36F8FFEE796
:1039900013E041606560FFF769FF61687068401A75
:1039A0007060B268904200D2B0607069014300203C
:1039B000C4E90001F068401CF06000F07DFB78076E
:1039C00007D0502080F31188BFF34F8FBFF36F8F64
:1039D000FEE73846BDE8F0818400002010B5031FE3
:1039E0004FF080741C601B1F21F001011960191F2A
:1039F000024B0B60143940380A6010BDD9380008FA
:103A0000F8B5044600208DF800000E466A462046B0
:103A100000F00EF8641C9DF80050E0B26A46314692
:103A200000F006F89DF80000F10088402844F8BD39
:103A30000EB564230092CDE90113024601233C2117
:103A40000148FDF7DDFA0EBD3C0100202DE9F843E9
:103A50008846064669460220FFF76CFA9DF800008A
:103A600030B1012808D0022809D003280AD00BE081
:103A70004FF066341A4D07E01A4C1B4D04E0194C08
:103A80001A4D01E01A4C1B4D1FFA88F0FCF7CFFCD1
:103A900022462B46FCF75CFCFCF7D6FC87B24FEACB
:103AA0001840FCF7C4FC22462B46FCF751FCFCF7FF
:103AB000CBFC84B2F9B23046FFF74AFB701C390ADE
:103AC000C0B2FFF745FBB01CE1B2C0B2FFF740FB4C
:103AD000F61C210AF0B2FFF73BFBBDE8F8830000BB
:103AE0006666D63FB1BFEC9E3C2CB43F3C2C943F65
:103AF0006EA301BC0512743FD0E9013201699A60DE
:103B0000D0E901235A604A68824201D182684A6042
:103B1000002202610868401E0860086870470000C3
:103B2000034B036003F1540008608020106070476D
:103B30002C03002000F108014FF0FF32C0E9011210
:103B4000C16001610021016070470021016170477F
:103B500030B50B685A1C02D000F1080202E002697D
:103B600004E02246546825689D42FAD953684B60A8
:103B700099608A60516008610168491C016030BD2C
:103B800042684A6093688B609368596091600861ED
:103B90000168491C01607047502080F31188BFF311
:103BA0004F8FBFF36F8F0A494868401C4860012857
:103BB0000CD10848006810F0FF0F07D0502080F3A8
:103BC0001188BFF34F8FBFF36F8FFEE77047000080
:103BD000A400002004ED00E00849486828B1401E18
:103BE000486001D180F311887047502080F311881C
:103BF000BFF34F8FBFF36F8FFEE70000A4000020DC
:103C000070B500282AD0164DA0F1080460686969D3
:103C1000084207D1502080F31188BFF34F8FBFF3C4
:103C20006F8FFEE722683AB1502080F31188BFF30E
:103C30004F8FBFF36F8FFEE78843606000F0D6F8C8
:103C400060686968084468602046FFF70FFE2869CD
:103C5000401C2861BDE8704000F02EBA70BD000025
:103C6000840000204FF0E0200021016181610549BE
:103C70004FF47A720968B1FBF2F1491E41610721E4
:103C8000016170474400002010B5020014D00F48B5
:103C9000006B38B1502080F31188BFF34F8FBFF312
:103CA0006F8FFEE700F0A2F800211046FFF782FCBC
:103CB00000F002FA002807D105494FF08050086053
:103CC000BFF34F8FBFF36F8F10BD0000480000207F
:103CD00004ED00E070B50546FFF75EFF254C05B921
:103CE0002568281DFFF708FF58B9E86A224A00EB4B
:103CF000800152F8211021B90121814020698843B7
:103D00002061A86A18B105F11800FFF7F5FE606A96
:103D1000401C60622068854208D11748291DC830C0
:103D2000FFF72EFF6068401C606007E0A068401E3F
:103D3000A0602846FFF7DEFCFFF7BEFDFFF74CFF53
:103D40006069002814D02068854211D1206B38B1F9
:103D5000502080F31188BFF34F8FBFF36F8FFEE7C2
:103D600006494FF080500860BFF34F8FBFF36F8F4D
:103D700070BD000048000020C805002004ED00E0F0
:103D800010B586B00024039405AA04A903A80494DE
:103D9000FFF7C6FEDDE903010094CDE90110002321
:103DA0000EA11048059A00F0F6F80F490028C862E5
:103DB00011D0502080F31188BFF34F8FBFF36F8F66
:103DC0004FF0FF30886201204861CC6006B0BDE84A
:103DD000104000F05FB806B010BD000049444C45EB
:103DE0000000000075370008480000200248016B01
:103DF000491C016370470000480000201448016B13
:103E000011B10121C16170470021C1610169B1FA9D
:103E100081F1C1F11F0101EB81020E4951F82230FD
:103E20006BB101EB820101F108034A6852684A60F4
:103E30009A4201D152684A60D168016070475020AF
:103E400080F31188BFF34F8FBFF36F8FFEE7000041
:103E500048000020C805002003B583B06423012278
:103E600004A98DE80E00134602463C210248FDF7E6
:103E7000F5F905B000BD00003C0100200148406894
:103E800070470000840000200148806870470000EF
:103E9000840000201CB5264908780190FF20087096
:103EA00008788DF800009DF800009DF8002000F0D3
:103EB000F000904207D0502080F31188BFF34F8F5D
:103EC000BFF36F8FFEE79DF800001A4C00F0500022
:103ED00020700720A06005E09DF8002052008DF8BA
:103EE0000020401E9DF800201206F5D4A060032893
:103EF00007D0502080F31188BFF34F8FBFF36F8F2F
:103F0000FEE74FF44070A060019808700A4801680D
:103F100041F470010160016841F070410160FFF7F8
:103F2000A1FE00206060FCF721F900201CBD00000C
:103F300000E400E0A400002020ED00E02DE9FF5F98
:103F40008346DDE90E87994616468A469000FFF7BC
:103F5000D7FC05001CD05420FFF7D2FC040014D07D
:103F60000020256384F85100CDE90240CDE90087A7
:103F70004B46324651465846FFF72CFC2046FFF789
:103F800051FB012004B0BDE8F09F2846FFF738FE42
:103F90004FF0FF30F6E7F0B585B0DDE90B640A9D20
:103FA000A6B1DCB1542700972663022684F851603D
:103FB000002604AFCDE90246CDE90057FFF70AFC21
:103FC0002046FFF72FFB049805B0F0BD502080F38A
:103FD0001188BFF34F8FBFF36F8FFEE7502080F340
:103FE0001188BFF34F8FBFF36F8FFEE72DE9F041CC
:103FF0002F4C0026206B28B1A069401CA0613046E0
:10400000BDE8F081E5686D1CE56013D1606B006868
:1040100038B1502080F31188BFF34F8FBFF36F8FFB
:10402000FEE7606BA16B6163A063206A401C2062A5
:10403000FFF742FCA06ADFF87C80854209D3606B01
:104040000068A0B1606BC068C7687868854211D20B
:10405000A0622068C06A00EB800158F821000128A6
:1040600000D90126E0690028C9D00126C7E74FF032
:10407000FF30EDE7381DFFF73FFDB86A18B107F1D3
:104080001800FFF739FDF96A0120226988401043C2
:10409000206101EB810108EB8100391DFFF770FD04
:1040A000F86A2168C96A8842C9D30126C7E70000B7
:1040B00048000020C80500202DE9F0472C4D0024C1
:1040C0002746286B38B1FFF767FD286B401E286331
:1040D000286B40B146E0502080F31188BFF34F8F2A
:1040E000BFF36F8FFEE7A968224E0120D1B3A6F17E
:1040F000B40980463068E8B1F068C46804F118007B
:10410000FFF7FAFC201DFFF7F7FCE06A2A6908FABE
:1041100000F11143296100EB800109EB8100211DB1
:10412000FFF72EFDE06A2968C96A8842E2D3C5F824
:104130001C80DFE70CB1FFF7BFFBAC6944B146461A
:10414000FFF754FF00B1EE61641EF9D10020A861B1
:10415000E86938B10849012738070860BFF34F8F75
:10416000BFF36F8FFFF738FD3846BDE8F0870000DA
:10417000480000207C06002004ED00E0A842000872
:10418000E529000800000000000000008000000099
:1041900000000000000000009C42000821330008DD
:1041A000000000000100000080000000000000008E
:1041B0000000000090420008893200080000000062
:1041C000020000008000000000000000000000006D
:1041D0006042000861320008000000000100000099
:1041E0008000000000000000000000007042000895
:1041F00049320008000000000100000080000000BB
:10420000000000000000000080420008A735000800
:10421000000000000100000080000000000000001D
:1042200000000000010202030405060708090A0B4A
:104230000C0D0E0F101001020203040506070809F9
:104240000A0B0C0D0E0F1010000000000000000003
:10425000010203040607080900000000010203042C
:10426000476574493263446174615461736B000043
:10427000476574416463446174615461736B000009
:104280005072696E74446174615461736B00000014
:104290004B65795363616E5461736B004C65645276
:1042A000756E5461736B000064656661756C74545F
:1042B00061736B00D442000800000020B4000000CD
:1042C000542C000888430008B4000020044A000071
:1042D000642C000800000000000000000000000046
:1042E00000000000000000000000000000000000CE
:1042F00000000000000000000000000000000000BE
:1043000000000000000000000000000001000000AC
:10431000100000000000000000127A000000000001
:10432000000000000000000000000000000000008D
:10433000000000000000000000000000000000007D
:10434000000000000000000000000000000000006D
:10435000000000000000000000000000000000005D
:10436000000000000000000000000000000000004D
:10437000000000000000000000000000AAAAAAAA95
:08438000000000000000000035
:0400000508000131BD
:00000001FF
